{
  "contractName": "TestCrowdFundingWithDeadline",
  "abi": [
    {
      "inputs": [
        {
          "internalType": "string",
          "name": "contractName",
          "type": "string"
        },
        {
          "internalType": "uint256",
          "name": "targetAmountEth",
          "type": "uint256"
        },
        {
          "internalType": "uint256",
          "name": "durationInMin",
          "type": "uint256"
        },
        {
          "internalType": "address payable",
          "name": "beneficiaryAddress",
          "type": "address"
        }
      ],
      "payable": false,
      "stateMutability": "nonpayable",
      "type": "constructor"
    },
    {
      "anonymous": false,
      "inputs": [
        {
          "indexed": false,
          "internalType": "address",
          "name": "addr",
          "type": "address"
        },
        {
          "indexed": false,
          "internalType": "uint256",
          "name": "totalCollected",
          "type": "uint256"
        },
        {
          "indexed": false,
          "internalType": "bool",
          "name": "succeeded",
          "type": "bool"
        }
      ],
      "name": "CampaignFinished",
      "type": "event"
    },
    {
      "anonymous": false,
      "inputs": [
        {
          "indexed": false,
          "internalType": "uint256",
          "name": "totalcollection",
          "type": "uint256"
        },
        {
          "indexed": false,
          "internalType": "string",
          "name": "state",
          "type": "string"
        }
      ],
      "name": "Collection",
      "type": "event"
    },
    {
      "anonymous": false,
      "inputs": [
        {
          "indexed": false,
          "internalType": "address",
          "name": "addr",
          "type": "address"
        },
        {
          "indexed": false,
          "internalType": "uint256",
          "name": "contribution",
          "type": "uint256"
        },
        {
          "indexed": false,
          "internalType": "string",
          "name": "state",
          "type": "string"
        }
      ],
      "name": "Contribution",
      "type": "event"
    },
    {
      "anonymous": false,
      "inputs": [
        {
          "indexed": false,
          "internalType": "address",
          "name": "addr",
          "type": "address"
        },
        {
          "indexed": false,
          "internalType": "uint256",
          "name": "amount",
          "type": "uint256"
        },
        {
          "indexed": false,
          "internalType": "string",
          "name": "state",
          "type": "string"
        }
      ],
      "name": "Withdrawn",
      "type": "event"
    },
    {
      "constant": true,
      "inputs": [
        {
          "internalType": "address",
          "name": "",
          "type": "address"
        }
      ],
      "name": "amounts",
      "outputs": [
        {
          "internalType": "uint256",
          "name": "",
          "type": "uint256"
        }
      ],
      "payable": false,
      "stateMutability": "view",
      "type": "function"
    },
    {
      "constant": true,
      "inputs": [],
      "name": "beforeDeadline",
      "outputs": [
        {
          "internalType": "bool",
          "name": "",
          "type": "bool"
        }
      ],
      "payable": false,
      "stateMutability": "view",
      "type": "function"
    },
    {
      "constant": true,
      "inputs": [],
      "name": "beneficiary",
      "outputs": [
        {
          "internalType": "address payable",
          "name": "",
          "type": "address"
        }
      ],
      "payable": false,
      "stateMutability": "view",
      "type": "function"
    },
    {
      "constant": false,
      "inputs": [],
      "name": "collect",
      "outputs": [],
      "payable": false,
      "stateMutability": "nonpayable",
      "type": "function"
    },
    {
      "constant": true,
      "inputs": [],
      "name": "collected",
      "outputs": [
        {
          "internalType": "bool",
          "name": "",
          "type": "bool"
        }
      ],
      "payable": false,
      "stateMutability": "view",
      "type": "function"
    },
    {
      "constant": false,
      "inputs": [],
      "name": "contribute",
      "outputs": [],
      "payable": true,
      "stateMutability": "payable",
      "type": "function"
    },
    {
      "constant": false,
      "inputs": [],
      "name": "finishCrowdFunding",
      "outputs": [],
      "payable": false,
      "stateMutability": "nonpayable",
      "type": "function"
    },
    {
      "constant": true,
      "inputs": [],
      "name": "fundingDeadline",
      "outputs": [
        {
          "internalType": "uint256",
          "name": "",
          "type": "uint256"
        }
      ],
      "payable": false,
      "stateMutability": "view",
      "type": "function"
    },
    {
      "constant": true,
      "inputs": [],
      "name": "getTotalCollected",
      "outputs": [
        {
          "internalType": "uint256",
          "name": "",
          "type": "uint256"
        }
      ],
      "payable": false,
      "stateMutability": "view",
      "type": "function"
    },
    {
      "constant": true,
      "inputs": [],
      "name": "inProgress",
      "outputs": [
        {
          "internalType": "bool",
          "name": "",
          "type": "bool"
        }
      ],
      "payable": false,
      "stateMutability": "view",
      "type": "function"
    },
    {
      "constant": true,
      "inputs": [],
      "name": "isSuccessful",
      "outputs": [
        {
          "internalType": "bool",
          "name": "",
          "type": "bool"
        }
      ],
      "payable": false,
      "stateMutability": "view",
      "type": "function"
    },
    {
      "constant": true,
      "inputs": [],
      "name": "name",
      "outputs": [
        {
          "internalType": "string",
          "name": "",
          "type": "string"
        }
      ],
      "payable": false,
      "stateMutability": "view",
      "type": "function"
    },
    {
      "constant": true,
      "inputs": [],
      "name": "owner",
      "outputs": [
        {
          "internalType": "address",
          "name": "",
          "type": "address"
        }
      ],
      "payable": false,
      "stateMutability": "view",
      "type": "function"
    },
    {
      "constant": true,
      "inputs": [],
      "name": "state",
      "outputs": [
        {
          "internalType": "enum CrowdFundingWithDeadline.State",
          "name": "",
          "type": "uint8"
        }
      ],
      "payable": false,
      "stateMutability": "view",
      "type": "function"
    },
    {
      "constant": true,
      "inputs": [],
      "name": "targetAmount",
      "outputs": [
        {
          "internalType": "uint256",
          "name": "",
          "type": "uint256"
        }
      ],
      "payable": false,
      "stateMutability": "view",
      "type": "function"
    },
    {
      "constant": true,
      "inputs": [],
      "name": "totalCollected",
      "outputs": [
        {
          "internalType": "uint256",
          "name": "",
          "type": "uint256"
        }
      ],
      "payable": false,
      "stateMutability": "view",
      "type": "function"
    },
    {
      "constant": false,
      "inputs": [],
      "name": "withdraw",
      "outputs": [],
      "payable": false,
      "stateMutability": "nonpayable",
      "type": "function"
    },
    {
      "constant": false,
      "inputs": [
        {
          "internalType": "uint256",
          "name": "newTime",
          "type": "uint256"
        }
      ],
      "name": "setCurrentTime",
      "outputs": [],
      "payable": false,
      "stateMutability": "nonpayable",
      "type": "function"
    }
  ],
  "bytecode": "0x60806040523480156200001157600080fd5b506040516200140638038062001406833981810160405260808110156200003757600080fd5b81019080805160405193929190846401000000008211156200005857600080fd5b838201915060208201858111156200006f57600080fd5b82518660018202830111640100000000821117156200008d57600080fd5b8083526020830192505050908051906020019080838360005b83811015620000c3578082015181840152602081019050620000a6565b50505050905090810190601f168015620000f15780820380516001836020036101000a031916815260200191505b50604052602001805190602001909291908051906020019092919080519060200190929190505050838383838360009080519060200190620001359291906200032c565b5073__Utils_________________________________63d8916bb9846040518263ffffffff1660e01b81526004018082815260200191505060206040518083038186803b1580156200018657600080fd5b505af41580156200019b573d6000803e3d6000fd5b505050506040513d6020811015620001b257600080fd5b810190808051906020019092919050505060018190555073__Utils_________________________________63529b380f836040518263ffffffff1660e01b81526004018082815260200191505060206040518083038186803b1580156200021957600080fd5b505af41580156200022e573d6000803e3d6000fd5b505050506040513d60208110156200024557600080fd5b8101908080519060200190929190505050620002666200032260201b60201c565b0160028190555080600360006101000a81548173ffffffffffffffffffffffffffffffffffffffff021916908373ffffffffffffffffffffffffffffffffffffffff16021790555033600460006101000a81548173ffffffffffffffffffffffffffffffffffffffff021916908373ffffffffffffffffffffffffffffffffffffffff1602179055506000600460146101000a81548160ff021916908360038111156200030f57fe5b02179055505050505050505050620003db565b6000600854905090565b828054600181600116156101000203166002900490600052602060002090601f016020900481019282601f106200036f57805160ff1916838001178555620003a0565b82800160010185558215620003a0579182015b828111156200039f57825182559160200191906001019062000382565b5b509050620003af9190620003b3565b5090565b620003d891905b80821115620003d4576000816000905550600101620003ba565b5090565b90565b61101b80620003eb6000396000f3fe6080604052600436106101095760003560e01c80638735181311610095578063d7bb99ba11610064578063d7bb99ba14610436578063e29eb83614610440578063e52253811461046b578063ec4cd0cf14610482578063fbe5d87e146104b157610109565b8063873518131461034c5780638da5cb5b1461037b578063953b8fb8146103d2578063c19d93fb146103fd57610109565b80633ccfd60b116100dc5780633ccfd60b1461024757806355a3b2c11461025e57806368bc0041146102c3578063796b23bb146102f257806384bcefd41461031d57610109565b806306fdde031461010e578063083dca111461019e57806322f8e566146101b557806338af3eed146101f0575b600080fd5b34801561011a57600080fd5b506101236104dc565b6040518080602001828103825283818151815260200191508051906020019080838360005b83811015610163578082015181840152602081019050610148565b50505050905090810190601f1680156101905780820380516001836020036101000a031916815260200191505b509250505060405180910390f35b3480156101aa57600080fd5b506101b361057a565b005b3480156101c157600080fd5b506101ee600480360360208110156101d857600080fd5b8101908080359060200190929190505050610761565b005b3480156101fc57600080fd5b5061020561076b565b604051808273ffffffffffffffffffffffffffffffffffffffff1673ffffffffffffffffffffffffffffffffffffffff16815260200191505060405180910390f35b34801561025357600080fd5b5061025c610791565b005b34801561026a57600080fd5b506102ad6004803603602081101561028157600080fd5b81019080803573ffffffffffffffffffffffffffffffffffffffff169060200190929190505050610a91565b6040518082815260200191505060405180910390f35b3480156102cf57600080fd5b506102d8610aa9565b604051808215151515815260200191505060405180910390f35b3480156102fe57600080fd5b50610307610abc565b6040518082815260200191505060405180910390f35b34801561032957600080fd5b50610332610ac2565b604051808215151515815260200191505060405180910390f35b34801561035857600080fd5b50610361610ad5565b604051808215151515815260200191505060405180910390f35b34801561038757600080fd5b50610390610b34565b604051808273ffffffffffffffffffffffffffffffffffffffff1673ffffffffffffffffffffffffffffffffffffffff16815260200191505060405180910390f35b3480156103de57600080fd5b506103e7610b5a565b6040518082815260200191505060405180910390f35b34801561040957600080fd5b50610412610b60565b6040518082600381111561042257fe5b60ff16815260200191505060405180910390f35b61043e610b73565b005b34801561044c57600080fd5b50610455610d97565b6040518082815260200191505060405180910390f35b34801561047757600080fd5b50610480610d9d565b005b34801561048e57600080fd5b50610497610f5a565b604051808215151515815260200191505060405180910390f35b3480156104bd57600080fd5b506104c6610f89565b6040518082815260200191505060405180910390f35b60008054600181600116156101000203166002900480601f0160208091040260200160405190810160405280929190818152602001828054600181600116156101000203166002900480156105725780601f1061054757610100808354040283529160200191610572565b820191906000526020600020905b81548152906001019060200180831161055557829003601f168201915b505050505081565b600080600381111561058857fe5b600460149054906101000a900460ff1660038111156105a357fe5b14610616576040517f08c379a000000000000000000000000000000000000000000000000000000000815260040180806020018281038252600d8152602001807f496e76616c69642073746174650000000000000000000000000000000000000081525060200191505060405180910390fd5b61061e610aa9565b15610674576040517f08c379a0000000000000000000000000000000000000000000000000000000008152600401808060200182810382526028815260200180610fbf6028913960400191505060405180910390fd5b600660009054906101000a900460ff166106b1576001600460146101000a81548160ff021916908360038111156106a757fe5b02179055506106d6565b6002600460146101000a81548160ff021916908360038111156106d057fe5b02179055505b7f6fa7e87ebbd87ed4f1c40bba63144f68fd2bb022fb748ab3b61b5411c39bd47430600754600660009054906101000a900460ff16604051808473ffffffffffffffffffffffffffffffffffffffff1673ffffffffffffffffffffffffffffffffffffffff16815260200183815260200182151515158152602001935050505060405180910390a150565b8060088190555050565b600360009054906101000a900473ffffffffffffffffffffffffffffffffffffffff1681565b600180600381111561079f57fe5b600460149054906101000a900460ff1660038111156107ba57fe5b1461082d576040517f08c379a000000000000000000000000000000000000000000000000000000000815260040180806020018281038252600d8152602001807f496e76616c69642073746174650000000000000000000000000000000000000081525060200191505060405180910390fd5b6000600560003373ffffffffffffffffffffffffffffffffffffffff1673ffffffffffffffffffffffffffffffffffffffff16815260200190815260200160002054116108e2576040517f08c379a00000000000000000000000000000000000000000000000000000000081526004018080602001828103825260178152602001807f4e6f7468696e672077617320636f6e747269627574656400000000000000000081525060200191505060405180910390fd5b6000600560003373ffffffffffffffffffffffffffffffffffffffff1673ffffffffffffffffffffffffffffffffffffffff1681526020019081526020016000205490506000600560003373ffffffffffffffffffffffffffffffffffffffff1673ffffffffffffffffffffffffffffffffffffffff168152602001908152602001600020819055503373ffffffffffffffffffffffffffffffffffffffff166108fc829081150290604051600060405180830381858888f193505050506109e95780600560003373ffffffffffffffffffffffffffffffffffffffff1673ffffffffffffffffffffffffffffffffffffffff168152602001908152602001600020819055505b7fb80d46a1fcb96f3896e038df66c1242504a8e49effecd0bf2473574707ca01213082604051808373ffffffffffffffffffffffffffffffffffffffff1673ffffffffffffffffffffffffffffffffffffffff168152602001828152602001806020018281038252600c8152602001807f4661696c65642073746174650000000000000000000000000000000000000000815250602001935050505060405180910390a15050565b60056020528060005260406000206000915090505481565b6000600254610ab6610f93565b10905090565b60025481565b600660009054906101000a900460ff1681565b6000806003811115610ae357fe5b600460149054906101000a900460ff166003811115610afe57fe5b1480610b2f575060026003811115610b1257fe5b600460149054906101000a900460ff166003811115610b2d57fe5b145b905090565b600460009054906101000a900473ffffffffffffffffffffffffffffffffffffffff1681565b60015481565b600460149054906101000a900460ff1681565b6000806003811115610b8157fe5b600460149054906101000a900460ff166003811115610b9c57fe5b14610c0f576040517f08c379a000000000000000000000000000000000000000000000000000000000815260040180806020018281038252600d8152602001807f496e76616c69642073746174650000000000000000000000000000000000000081525060200191505060405180910390fd5b610c17610aa9565b610c6c576040517f08c379a0000000000000000000000000000000000000000000000000000000008152600401808060200182810382526021815260200180610f9e6021913960400191505060405180910390fd5b34600560003373ffffffffffffffffffffffffffffffffffffffff1673ffffffffffffffffffffffffffffffffffffffff16815260200190815260200160002060008282540192505081905550346007600082825401925050819055507fd7604d21739444d3bc2717034eb90601f2cf2e5987c372af627911341e6ae6253034604051808373ffffffffffffffffffffffffffffffffffffffff1673ffffffffffffffffffffffffffffffffffffffff168152602001828152602001806020018281038252600d8152602001807f4f6e676f696e6720737461746500000000000000000000000000000000000000815250602001935050505060405180910390a160015460075410610d94576001600660006101000a81548160ff0219169083151502179055505b50565b60075481565b6002806003811115610dab57fe5b600460149054906101000a900460ff166003811115610dc657fe5b14610e39576040517f08c379a000000000000000000000000000000000000000000000000000000000815260040180806020018281038252600d8152602001807f496e76616c69642073746174650000000000000000000000000000000000000081525060200191505060405180910390fd5b600360009054906101000a900473ffffffffffffffffffffffffffffffffffffffff1673ffffffffffffffffffffffffffffffffffffffff166108fc6007549081150290604051600060405180830381858888f1935050505015610f32576003600460146101000a81548160ff02191690836003811115610eb657fe5b02179055507fbd545cf89f1d03bcb9c8a717c49fd16f73d796f5883a7754252b716697ab323960075460405180828152602001806020018281038252600f8152602001807f53756363656564656420737461746500000000000000000000000000000000008152506020019250505060405180910390a1610f57565b6001600460146101000a81548160ff02191690836003811115610f5157fe5b02179055505b50565b6000600380811115610f6857fe5b600460149054906101000a900460ff166003811115610f8357fe5b14905090565b6000600754905090565b600060085490509056fe4e6f20636f6e747269627574696f6e73206166746572206120646561646c696e6543616e6e6f742066696e6973682063616d706169676e206265666f7265206120646561646c696e65a265627a7a72315820b678b151889075a9ef8ca5e7d4c057f3851d4b336a50dbca0994f2dfabaef4e764736f6c63430005100032",
  "source": "pragma solidity ^0.5.0;\r\nimport \"./CrowdFundingWithDeadline.sol\";\r\n\r\ncontract TestCrowdFundingWithDeadline is CrowdFundingWithDeadline {\r\n    uint time;\r\n\r\n    constructor(\r\n        string memory contractName,\r\n        uint targetAmountEth,\r\n        uint durationInMin,\r\n        address payable beneficiaryAddress\r\n    )\r\n        CrowdFundingWithDeadline(contractName, targetAmountEth, durationInMin, beneficiaryAddress)\r\n        public\r\n    {\r\n\r\n    }\r\n\r\n    function currentTime() internal view returns(uint) {\r\n        return time;\r\n    }\r\n\r\n    function setCurrentTime(uint newTime) public {\r\n        time = newTime;\r\n    }\r\n}",
  "sourcePath": "C:\\Users\\Dhanapal Amutha\\OneDrive\\Desktop\\Online CrowdFunding\\contracts\\TestCrowdFundingWithDeadline.sol",
  "compiler": {
    "name": "solc",
    "version": "0.5.16+commit.9c3226ce.Emscripten.clang"
  },
  "schemaVersion": "3.4.11",
  "updatedAt": "2023-02-08T13:30:38.031Z",
  "networkType": "ethereum",
  "devdoc": {
    "methods": {}
  },
  "userdoc": {
    "methods": {}
  }
}