{
  "contractName": "Utils",
  "abi": [
    {
      "constant": true,
      "inputs": [
        {
          "internalType": "uint256",
          "name": "sumInEth",
          "type": "uint256"
        }
      ],
      "name": "etherToWei",
      "outputs": [
        {
          "internalType": "uint256",
          "name": "",
          "type": "uint256"
        }
      ],
      "payable": false,
      "stateMutability": "pure",
      "type": "function"
    },
    {
      "constant": true,
      "inputs": [
        {
          "internalType": "uint256",
          "name": "timeInMin",
          "type": "uint256"
        }
      ],
      "name": "minutesToSeconds",
      "outputs": [
        {
          "internalType": "uint256",
          "name": "",
          "type": "uint256"
        }
      ],
      "payable": false,
      "stateMutability": "pure",
      "type": "function"
    }
  ],
  "bytecode": "0x610116610026600b82828239805160001a60731461001957fe5b30600052607381538281f3fe7300000000000000000000000000000000000000003014608060405260043610603d5760003560e01c8063529b380f146042578063d8916bb9146081575b600080fd5b606b60048036036020811015605657600080fd5b810190808035906020019092919050505060c0565b6040518082815260200191505060405180910390f35b60aa60048036036020811015609557600080fd5b810190808035906020019092919050505060cd565b6040518082815260200191505060405180910390f35b6000603c82029050919050565b6000670de0b6b3a76400008202905091905056fea265627a7a723158208cc2009106c0f8eb65ba8fefd7da99459db444a7b8a56ff1dbb0ab0a644df19d64736f6c63430005100032",
  "source": "pragma solidity ^0.5.0;\r\n\r\nlibrary Utils {\r\n\r\n    function etherToWei(uint sumInEth) public pure returns(uint) {\r\n        return sumInEth * 1 ether;\r\n    }\r\n\r\n    function minutesToSeconds(uint timeInMin) public pure returns(uint) {\r\n        return timeInMin * 1 minutes;\r\n    }\r\n}",
  "sourcePath": "C:\\Users\\Dhanapal Amutha\\OneDrive\\Desktop\\Online CrowdFunding\\contracts\\Utils.sol",
  "compiler": {
    "name": "solc",
    "version": "0.5.16+commit.9c3226ce.Emscripten.clang"
  },
  "schemaVersion": "3.4.11",
  "updatedAt": "2023-02-08T13:30:38.014Z",
  "networkType": "ethereum",
  "devdoc": {
    "methods": {}
  },
  "userdoc": {
    "methods": {}
  }
}